{
  "contracts/ValidationRegistry.sol": {
    "ValidationRegistry": {
      "abi": [
        {
          "inputs": [
            {
              "internalType": "address",
              "name": "reputationSystem_",
              "type": "address"
            },
            {
              "internalType": "uint256",
              "name": "quorumThreshold_",
              "type": "uint256"
            }
          ],
          "stateMutability": "nonpayable",
          "type": "constructor"
        },
        {
          "inputs": [
            {
              "internalType": "bytes32",
              "name": "contentHash",
              "type": "bytes32"
            },
            {
              "internalType": "address",
              "name": "validator",
              "type": "address"
            }
          ],
          "name": "AlreadyValidated",
          "type": "error"
        },
        {
          "inputs": [
            {
              "internalType": "bytes32",
              "name": "contentHash",
              "type": "bytes32"
            }
          ],
          "name": "ConsensusAlreadyReached",
          "type": "error"
        },
        {
          "inputs": [
            {
              "internalType": "address",
              "name": "validator",
              "type": "address"
            }
          ],
          "name": "InsufficientReputation",
          "type": "error"
        },
        {
          "anonymous": false,
          "inputs": [
            {
              "indexed": true,
              "internalType": "bytes32",
              "name": "contentHash",
              "type": "bytes32"
            },
            {
              "indexed": false,
              "internalType": "uint8",
              "name": "result",
              "type": "uint8"
            }
          ],
          "name": "ConsensusReached",
          "type": "event"
        },
        {
          "anonymous": false,
          "inputs": [
            {
              "indexed": true,
              "internalType": "bytes32",
              "name": "contentHash",
              "type": "bytes32"
            },
            {
              "indexed": true,
              "internalType": "address",
              "name": "validator",
              "type": "address"
            },
            {
              "indexed": false,
              "internalType": "uint8",
              "name": "vote",
              "type": "uint8"
            }
          ],
          "name": "ValidationSubmitted",
          "type": "event"
        },
        {
          "inputs": [
            {
              "internalType": "bytes32",
              "name": "",
              "type": "bytes32"
            }
          ],
          "name": "consensusReached",
          "outputs": [
            {
              "internalType": "bool",
              "name": "",
              "type": "bool"
            }
          ],
          "stateMutability": "view",
          "type": "function"
        },
        {
          "inputs": [
            {
              "internalType": "bytes32",
              "name": "",
              "type": "bytes32"
            }
          ],
          "name": "consensusResult",
          "outputs": [
            {
              "internalType": "enum ValidationRegistry.VoteType",
              "name": "",
              "type": "uint8"
            }
          ],
          "stateMutability": "view",
          "type": "function"
        },
        {
          "inputs": [
            {
              "internalType": "bytes32",
              "name": "contentHash",
              "type": "bytes32"
            }
          ],
          "name": "getValidations",
          "outputs": [
            {
              "components": [
                {
                  "internalType": "address",
                  "name": "validator",
                  "type": "address"
                },
                {
                  "internalType": "enum ValidationRegistry.VoteType",
                  "name": "vote",
                  "type": "uint8"
                }
              ],
              "internalType": "struct ValidationRegistry.Validation[]",
              "name": "",
              "type": "tuple[]"
            }
          ],
          "stateMutability": "view",
          "type": "function"
        },
        {
          "inputs": [],
          "name": "quorumThreshold",
          "outputs": [
            {
              "internalType": "uint256",
              "name": "",
              "type": "uint256"
            }
          ],
          "stateMutability": "view",
          "type": "function"
        },
        {
          "inputs": [],
          "name": "reputationSystem",
          "outputs": [
            {
              "internalType": "contract IReputationSystem",
              "name": "",
              "type": "address"
            }
          ],
          "stateMutability": "view",
          "type": "function"
        },
        {
          "inputs": [
            {
              "internalType": "bytes32",
              "name": "contentHash",
              "type": "bytes32"
            },
            {
              "internalType": "uint8",
              "name": "vote",
              "type": "uint8"
            }
          ],
          "name": "submitValidation",
          "outputs": [],
          "stateMutability": "nonpayable",
          "type": "function"
        }
      ],
      "evm": {
        "bytecode": {
          "linkReferences": {},
          "object": "60c060405234801561001057600080fd5b50604051610a85380380610a8583398101604081905261002f91610045565b6001600160a01b0390911660805260a05261007f565b6000806040838503121561005857600080fd5b82516001600160a01b038116811461006f57600080fd5b6020939093015192949293505050565b60805160a0516109c66100bf6000396000818161014c015261047b01526000818160da01528181610275015281816106b6015261076801526109c66000f3fe608060405234801561001057600080fd5b50600436106100625760003560e01c8063356daa7d146100675780633d8ecc9814610090578063594ea7ac146100a55780636587eda1146100d5578063731b0b60146101145780637b7a91dd14610147575b600080fd5b61007a61007536600461082e565b61017c565b604051610087919061087f565b60405180910390f35b6100a361009e3660046108e0565b610228565b005b6100c86100b336600461082e565b60036020526000908152604090205460ff1681565b6040516100879190610916565b6100fc7f000000000000000000000000000000000000000000000000000000000000000081565b6040516001600160a01b039091168152602001610087565b61013761012236600461082e565b60026020526000908152604090205460ff1681565b6040519015158152602001610087565b61016e7f000000000000000000000000000000000000000000000000000000000000000081565b604051908152602001610087565b600081815260208181526040808320805482518185028101850190935280835260609492939192909184015b8282101561021d5760008481526020908190206040805180820190915290840180546001600160a01b03811683529192909190830190600160a01b900460ff1660028111156101f9576101f9610847565b600281111561020a5761020a610847565b81525050815260200190600101906101a8565b505050509050919050565b60008281526002602052604090205460ff16156102605760405163672e55df60e11b8152600481018390526024015b60405180910390fd5b60405163e97be20f60e01b81523360048201527f00000000000000000000000000000000000000000000000000000000000000006001600160a01b03169063e97be20f90602401602060405180830381865afa1580156102c4573d6000803e3d6000fd5b505050506040513d601f19601f820116820180604052508101906102e8919061092a565b61030757604051630fe853c760e11b8152336004820152602401610257565b600082815260016020908152604080832033845290915290205460ff161561034b57604051632054146d60e21b815260048101839052336024820152604401610257565b60008160ff16600281111561036257610362610847565b600084815260208181526040918290208251808401909352338352929350810183600281111561039457610394610847565b9052815460018101835560009283526020928390208251910180546001600160a01b031981166001600160a01b03909316928317825593830151929390929183916001600160a81b03191617600160a01b8360028111156103f7576103f7610847565b0217905550505060008381526001602081815260408084203380865290835293819020805460ff1916909317909255905160ff8516815285917f41e6c022440cd76d5122c63f94caf50d3c966b5132a6d931966fcede4361504e910160405180910390a361046483610469565b505050565b600081815260208190526040902080547f000000000000000000000000000000000000000000000000000000000000000011156104a4575050565b60008060005b83548110156105655760008482815481106104c7576104c7610953565b600091825260209091200154600160a01b900460ff1660028111156104ee576104ee610847565b0361050557826104fd81610969565b935050610553565b600184828154811061051957610519610953565b600091825260209091200154600160a01b900460ff16600281111561054057610540610847565b03610553578161054f81610969565b9250505b8061055d81610969565b9150506104aa565b508082036105735750505050565b6000818311610583576001610586565b60005b60008681526002602081815260408084208054600160ff1991821681179092556003909352932080549495508594909391169184908111156105ca576105ca610847565b0217905550847f35aa10a5f4e1a09128bfae1b7cd3ec494b69d9136474c641647dcedff17a5f7682600281111561060357610603610847565b60405160ff909116815260200160405180910390a260005b845481101561082657600285828154811061063857610638610953565b600091825260209091200154600160a01b900460ff16600281111561065f5761065f610847565b146108145781600281111561067657610676610847565b85828154811061068857610688610953565b600091825260209091200154600160a01b900460ff1660028111156106af576106af610847565b03610766577f00000000000000000000000000000000000000000000000000000000000000006001600160a01b031663ded86d688683815481106106f5576106f5610953565b60009182526020909120015460405160e083901b6001600160e01b03191681526001600160a01b03909116600482015260056024820152604401600060405180830381600087803b15801561074957600080fd5b505af115801561075d573d6000803e3d6000fd5b50505050610814565b7f00000000000000000000000000000000000000000000000000000000000000006001600160a01b031663ed9fa61b8683815481106107a7576107a7610953565b60009182526020909120015460405160e083901b6001600160e01b03191681526001600160a01b03909116600482015260036024820152604401600060405180830381600087803b1580156107fb57600080fd5b505af115801561080f573d6000803e3d6000fd5b505050505b8061081e81610969565b91505061061b565b505050505050565b60006020828403121561084057600080fd5b5035919050565b634e487b7160e01b600052602160045260246000fd5b6003811061087b57634e487b7160e01b600052602160045260246000fd5b9052565b602080825282518282018190526000919060409081850190868401855b828110156108d357815180516001600160a01b031685528601516108c28786018261085d565b50928401929085019060010161089c565b5091979650505050505050565b600080604083850312156108f357600080fd5b82359150602083013560ff8116811461090b57600080fd5b809150509250929050565b60208101610924828461085d565b92915050565b60006020828403121561093c57600080fd5b8151801515811461094c57600080fd5b9392505050565b634e487b7160e01b600052603260045260246000fd5b60006001820161098957634e487b7160e01b600052601160045260246000fd5b506001019056fea26469706673582212205603729498e86e59abf736c08258b4b47ec7eac167dfbd27cf39b742e2cb24f864736f6c63430008140033",
          "opcodes": "PUSH1 0xC0 PUSH1 0x40 MSTORE CALLVALUE DUP1 ISZERO PUSH2 0x10 JUMPI PUSH1 0x0 DUP1 REVERT JUMPDEST POP PUSH1 0x40 MLOAD PUSH2 0xA85 CODESIZE SUB DUP1 PUSH2 0xA85 DUP4 CODECOPY DUP2 ADD PUSH1 0x40 DUP2 SWAP1 MSTORE PUSH2 0x2F SWAP2 PUSH2 0x45 JUMP JUMPDEST PUSH1 0x1 PUSH1 0x1 PUSH1 0xA0 SHL SUB SWAP1 SWAP2 AND PUSH1 0x80 MSTORE PUSH1 0xA0 MSTORE PUSH2 0x7F JUMP JUMPDEST PUSH1 0x0 DUP1 PUSH1 0x40 DUP4 DUP6 SUB SLT ISZERO PUSH2 0x58 JUMPI PUSH1 0x0 DUP1 REVERT JUMPDEST DUP3 MLOAD PUSH1 0x1 PUSH1 0x1 PUSH1 0xA0 SHL SUB DUP2 AND DUP2 EQ PUSH2 0x6F JUMPI PUSH1 0x0 DUP1 REVERT JUMPDEST PUSH1 0x20 SWAP4 SWAP1 SWAP4 ADD MLOAD SWAP3 SWAP5 SWAP3 SWAP4 POP POP POP JUMP JUMPDEST PUSH1 0x80 MLOAD PUSH1 0xA0 MLOAD PUSH2 0x9C6 PUSH2 0xBF PUSH1 0x0 CODECOPY PUSH1 0x0 DUP2 DUP2 PUSH2 0x14C ADD MSTORE PUSH2 0x47B ADD MSTORE PUSH1 0x0 DUP2 DUP2 PUSH1 0xDA ADD MSTORE DUP2 DUP2 PUSH2 0x275 ADD MSTORE DUP2 DUP2 PUSH2 0x6B6 ADD MSTORE PUSH2 0x768 ADD MSTORE PUSH2 0x9C6 PUSH1 0x0 RETURN INVALID PUSH1 0x80 PUSH1 0x40 MSTORE CALLVALUE DUP1 ISZERO PUSH2 0x10 JUMPI PUSH1 0x0 DUP1 REVERT JUMPDEST POP PUSH1 0x4 CALLDATASIZE LT PUSH2 0x62 JUMPI PUSH1 0x0 CALLDATALOAD PUSH1 0xE0 SHR DUP1 PUSH4 0x356DAA7D EQ PUSH2 0x67 JUMPI DUP1 PUSH4 0x3D8ECC98 EQ PUSH2 0x90 JUMPI DUP1 PUSH4 0x594EA7AC EQ PUSH2 0xA5 JUMPI DUP1 PUSH4 0x6587EDA1 EQ PUSH2 0xD5 JUMPI DUP1 PUSH4 0x731B0B60 EQ PUSH2 0x114 JUMPI DUP1 PUSH4 0x7B7A91DD EQ PUSH2 0x147 JUMPI JUMPDEST PUSH1 0x0 DUP1 REVERT JUMPDEST PUSH2 0x7A PUSH2 0x75 CALLDATASIZE PUSH1 0x4 PUSH2 0x82E JUMP JUMPDEST PUSH2 0x17C JUMP JUMPDEST PUSH1 0x40 MLOAD PUSH2 0x87 SWAP2 SWAP1 PUSH2 0x87F JUMP JUMPDEST PUSH1 0x40 MLOAD DUP1 SWAP2 SUB SWAP1 RETURN JUMPDEST PUSH2 0xA3 PUSH2 0x9E CALLDATASIZE PUSH1 0x4 PUSH2 0x8E0 JUMP JUMPDEST PUSH2 0x228 JUMP JUMPDEST STOP JUMPDEST PUSH2 0xC8 PUSH2 0xB3 CALLDATASIZE PUSH1 0x4 PUSH2 0x82E JUMP JUMPDEST PUSH1 0x3 PUSH1 0x20 MSTORE PUSH1 0x0 SWAP1 DUP2 MSTORE PUSH1 0x40 SWAP1 KECCAK256 SLOAD PUSH1 0xFF AND DUP2 JUMP JUMPDEST PUSH1 0x40 MLOAD PUSH2 0x87 SWAP2 SWAP1 PUSH2 0x916 JUMP JUMPDEST PUSH2 0xFC PUSH32 0x0 DUP2 JUMP JUMPDEST PUSH1 0x40 MLOAD PUSH1 0x1 PUSH1 0x1 PUSH1 0xA0 SHL SUB SWAP1 SWAP2 AND DUP2 MSTORE PUSH1 0x20 ADD PUSH2 0x87 JUMP JUMPDEST PUSH2 0x137 PUSH2 0x122 CALLDATASIZE PUSH1 0x4 PUSH2 0x82E JUMP JUMPDEST PUSH1 0x2 PUSH1 0x20 MSTORE PUSH1 0x0 SWAP1 DUP2 MSTORE PUSH1 0x40 SWAP1 KECCAK256 SLOAD PUSH1 0xFF AND DUP2 JUMP JUMPDEST PUSH1 0x40 MLOAD SWAP1 ISZERO ISZERO DUP2 MSTORE PUSH1 0x20 ADD PUSH2 0x87 JUMP JUMPDEST PUSH2 0x16E PUSH32 0x0 DUP2 JUMP JUMPDEST PUSH1 0x40 MLOAD SWAP1 DUP2 MSTORE PUSH1 0x20 ADD PUSH2 0x87 JUMP JUMPDEST PUSH1 0x0 DUP2 DUP2 MSTORE PUSH1 0x20 DUP2 DUP2 MSTORE PUSH1 0x40 DUP1 DUP4 KECCAK256 DUP1 SLOAD DUP3 MLOAD DUP2 DUP6 MUL DUP2 ADD DUP6 ADD SWAP1 SWAP4 MSTORE DUP1 DUP4 MSTORE PUSH1 0x60 SWAP5 SWAP3 SWAP4 SWAP2 SWAP3 SWAP1 SWAP2 DUP5 ADD JUMPDEST DUP3 DUP3 LT ISZERO PUSH2 0x21D JUMPI PUSH1 0x0 DUP5 DUP2 MSTORE PUSH1 0x20 SWAP1 DUP2 SWAP1 KECCAK256 PUSH1 0x40 DUP1 MLOAD DUP1 DUP3 ADD SWAP1 SWAP2 MSTORE SWAP1 DUP5 ADD DUP1 SLOAD PUSH1 0x1 PUSH1 0x1 PUSH1 0xA0 SHL SUB DUP2 AND DUP4 MSTORE SWAP2 SWAP3 SWAP1 SWAP2 SWAP1 DUP4 ADD SWAP1 PUSH1 0x1 PUSH1 0xA0 SHL SWAP1 DIV PUSH1 0xFF AND PUSH1 0x2 DUP2 GT ISZERO PUSH2 0x1F9 JUMPI PUSH2 0x1F9 PUSH2 0x847 JUMP JUMPDEST PUSH1 0x2 DUP2 GT ISZERO PUSH2 0x20A JUMPI PUSH2 0x20A PUSH2 0x847 JUMP JUMPDEST DUP2 MSTORE POP POP DUP2 MSTORE PUSH1 0x20 ADD SWAP1 PUSH1 0x1 ADD SWAP1 PUSH2 0x1A8 JUMP JUMPDEST POP POP POP POP SWAP1 POP SWAP2 SWAP1 POP JUMP JUMPDEST PUSH1 0x0 DUP3 DUP2 MSTORE PUSH1 0x2 PUSH1 0x20 MSTORE PUSH1 0x40 SWAP1 KECCAK256 SLOAD PUSH1 0xFF AND ISZERO PUSH2 0x260 JUMPI PUSH1 0x40 MLOAD PUSH4 0x672E55DF PUSH1 0xE1 SHL DUP2 MSTORE PUSH1 0x4 DUP2 ADD DUP4 SWAP1 MSTORE PUSH1 0x24 ADD JUMPDEST PUSH1 0x40 MLOAD DUP1 SWAP2 SUB SWAP1 REVERT JUMPDEST PUSH1 0x40 MLOAD PUSH4 0xE97BE20F PUSH1 0xE0 SHL DUP2 MSTORE CALLER PUSH1 0x4 DUP3 ADD MSTORE PUSH32 0x0 PUSH1 0x1 PUSH1 0x1 PUSH1 0xA0 SHL SUB AND SWAP1 PUSH4 0xE97BE20F SWAP1 PUSH1 0x24 ADD PUSH1 0x20 PUSH1 0x40 MLOAD DUP1 DUP4 SUB DUP2 DUP7 GAS STATICCALL ISZERO DUP1 ISZERO PUSH2 0x2C4 JUMPI RETURNDATASIZE PUSH1 0x0 DUP1 RETURNDATACOPY RETURNDATASIZE PUSH1 0x0 REVERT JUMPDEST POP POP POP POP PUSH1 0x40 MLOAD RETURNDATASIZE PUSH1 0x1F NOT PUSH1 0x1F DUP3 ADD AND DUP3 ADD DUP1 PUSH1 0x40 MSTORE POP DUP2 ADD SWAP1 PUSH2 0x2E8 SWAP2 SWAP1 PUSH2 0x92A JUMP JUMPDEST PUSH2 0x307 JUMPI PUSH1 0x40 MLOAD PUSH4 0xFE853C7 PUSH1 0xE1 SHL DUP2 MSTORE CALLER PUSH1 0x4 DUP3 ADD MSTORE PUSH1 0x24 ADD PUSH2 0x257 JUMP JUMPDEST PUSH1 0x0 DUP3 DUP2 MSTORE PUSH1 0x1 PUSH1 0x20 SWAP1 DUP2 MSTORE PUSH1 0x40 DUP1 DUP4 KECCAK256 CALLER DUP5 MSTORE SWAP1 SWAP2 MSTORE SWAP1 KECCAK256 SLOAD PUSH1 0xFF AND ISZERO PUSH2 0x34B JUMPI PUSH1 0x40 MLOAD PUSH4 0x2054146D PUSH1 0xE2 SHL DUP2 MSTORE PUSH1 0x4 DUP2 ADD DUP4 SWAP1 MSTORE CALLER PUSH1 0x24 DUP3 ADD MSTORE PUSH1 0x44 ADD PUSH2 0x257 JUMP JUMPDEST PUSH1 0x0 DUP2 PUSH1 0xFF AND PUSH1 0x2 DUP2 GT ISZERO PUSH2 0x362 JUMPI PUSH2 0x362 PUSH2 0x847 JUMP JUMPDEST PUSH1 0x0 DUP5 DUP2 MSTORE PUSH1 0x20 DUP2 DUP2 MSTORE PUSH1 0x40 SWAP2 DUP3 SWAP1 KECCAK256 DUP3 MLOAD DUP1 DUP5 ADD SWAP1 SWAP4 MSTORE CALLER DUP4 MSTORE SWAP3 SWAP4 POP DUP2 ADD DUP4 PUSH1 0x2 DUP2 GT ISZERO PUSH2 0x394 JUMPI PUSH2 0x394 PUSH2 0x847 JUMP JUMPDEST SWAP1 MSTORE DUP2 SLOAD PUSH1 0x1 DUP2 ADD DUP4 SSTORE PUSH1 0x0 SWAP3 DUP4 MSTORE PUSH1 0x20 SWAP3 DUP4 SWAP1 KECCAK256 DUP3 MLOAD SWAP2 ADD DUP1 SLOAD PUSH1 0x1 PUSH1 0x1 PUSH1 0xA0 SHL SUB NOT DUP2 AND PUSH1 0x1 PUSH1 0x1 PUSH1 0xA0 SHL SUB SWAP1 SWAP4 AND SWAP3 DUP4 OR DUP3 SSTORE SWAP4 DUP4 ADD MLOAD SWAP3 SWAP4 SWAP1 SWAP3 SWAP2 DUP4 SWAP2 PUSH1 0x1 PUSH1 0x1 PUSH1 0xA8 SHL SUB NOT AND OR PUSH1 0x1 PUSH1 0xA0 SHL DUP4 PUSH1 0x2 DUP2 GT ISZERO PUSH2 0x3F7 JUMPI PUSH2 0x3F7 PUSH2 0x847 JUMP JUMPDEST MUL OR SWAP1 SSTORE POP POP POP PUSH1 0x0 DUP4 DUP2 MSTORE PUSH1 0x1 PUSH1 0x20 DUP2 DUP2 MSTORE PUSH1 0x40 DUP1 DUP5 KECCAK256 CALLER DUP1 DUP7 MSTORE SWAP1 DUP4 MSTORE SWAP4 DUP2 SWAP1 KECCAK256 DUP1 SLOAD PUSH1 0xFF NOT AND SWAP1 SWAP4 OR SWAP1 SWAP3 SSTORE SWAP1 MLOAD PUSH1 0xFF DUP6 AND DUP2 MSTORE DUP6 SWAP2 PUSH32 0x41E6C022440CD76D5122C63F94CAF50D3C966B5132A6D931966FCEDE4361504E SWAP2 ADD PUSH1 0x40 MLOAD DUP1 SWAP2 SUB SWAP1 LOG3 PUSH2 0x464 DUP4 PUSH2 0x469 JUMP JUMPDEST POP POP POP JUMP JUMPDEST PUSH1 0x0 DUP2 DUP2 MSTORE PUSH1 0x20 DUP2 SWAP1 MSTORE PUSH1 0x40 SWAP1 KECCAK256 DUP1 SLOAD PUSH32 0x0 GT ISZERO PUSH2 0x4A4 JUMPI POP POP JUMP JUMPDEST PUSH1 0x0 DUP1 PUSH1 0x0 JUMPDEST DUP4 SLOAD DUP2 LT ISZERO PUSH2 0x565 JUMPI PUSH1 0x0 DUP5 DUP3 DUP2 SLOAD DUP2 LT PUSH2 0x4C7 JUMPI PUSH2 0x4C7 PUSH2 0x953 JUMP JUMPDEST PUSH1 0x0 SWAP2 DUP3 MSTORE PUSH1 0x20 SWAP1 SWAP2 KECCAK256 ADD SLOAD PUSH1 0x1 PUSH1 0xA0 SHL SWAP1 DIV PUSH1 0xFF AND PUSH1 0x2 DUP2 GT ISZERO PUSH2 0x4EE JUMPI PUSH2 0x4EE PUSH2 0x847 JUMP JUMPDEST SUB PUSH2 0x505 JUMPI DUP3 PUSH2 0x4FD DUP2 PUSH2 0x969 JUMP JUMPDEST SWAP4 POP POP PUSH2 0x553 JUMP JUMPDEST PUSH1 0x1 DUP5 DUP3 DUP2 SLOAD DUP2 LT PUSH2 0x519 JUMPI PUSH2 0x519 PUSH2 0x953 JUMP JUMPDEST PUSH1 0x0 SWAP2 DUP3 MSTORE PUSH1 0x20 SWAP1 SWAP2 KECCAK256 ADD SLOAD PUSH1 0x1 PUSH1 0xA0 SHL SWAP1 DIV PUSH1 0xFF AND PUSH1 0x2 DUP2 GT ISZERO PUSH2 0x540 JUMPI PUSH2 0x540 PUSH2 0x847 JUMP JUMPDEST SUB PUSH2 0x553 JUMPI DUP2 PUSH2 0x54F DUP2 PUSH2 0x969 JUMP JUMPDEST SWAP3 POP POP JUMPDEST DUP1 PUSH2 0x55D DUP2 PUSH2 0x969 JUMP JUMPDEST SWAP2 POP POP PUSH2 0x4AA JUMP JUMPDEST POP DUP1 DUP3 SUB PUSH2 0x573 JUMPI POP POP POP POP JUMP JUMPDEST PUSH1 0x0 DUP2 DUP4 GT PUSH2 0x583 JUMPI PUSH1 0x1 PUSH2 0x586 JUMP JUMPDEST PUSH1 0x0 JUMPDEST PUSH1 0x0 DUP7 DUP2 MSTORE PUSH1 0x2 PUSH1 0x20 DUP2 DUP2 MSTORE PUSH1 0x40 DUP1 DUP5 KECCAK256 DUP1 SLOAD PUSH1 0x1 PUSH1 0xFF NOT SWAP2 DUP3 AND DUP2 OR SWAP1 SWAP3 SSTORE PUSH1 0x3 SWAP1 SWAP4 MSTORE SWAP4 KECCAK256 DUP1 SLOAD SWAP5 SWAP6 POP DUP6 SWAP5 SWAP1 SWAP4 SWAP2 AND SWAP2 DUP5 SWAP1 DUP2 GT ISZERO PUSH2 0x5CA JUMPI PUSH2 0x5CA PUSH2 0x847 JUMP JUMPDEST MUL OR SWAP1 SSTORE POP DUP5 PUSH32 0x35AA10A5F4E1A09128BFAE1B7CD3EC494B69D9136474C641647DCEDFF17A5F76 DUP3 PUSH1 0x2 DUP2 GT ISZERO PUSH2 0x603 JUMPI PUSH2 0x603 PUSH2 0x847 JUMP JUMPDEST PUSH1 0x40 MLOAD PUSH1 0xFF SWAP1 SWAP2 AND DUP2 MSTORE PUSH1 0x20 ADD PUSH1 0x40 MLOAD DUP1 SWAP2 SUB SWAP1 LOG2 PUSH1 0x0 JUMPDEST DUP5 SLOAD DUP2 LT ISZERO PUSH2 0x826 JUMPI PUSH1 0x2 DUP6 DUP3 DUP2 SLOAD DUP2 LT PUSH2 0x638 JUMPI PUSH2 0x638 PUSH2 0x953 JUMP JUMPDEST PUSH1 0x0 SWAP2 DUP3 MSTORE PUSH1 0x20 SWAP1 SWAP2 KECCAK256 ADD SLOAD PUSH1 0x1 PUSH1 0xA0 SHL SWAP1 DIV PUSH1 0xFF AND PUSH1 0x2 DUP2 GT ISZERO PUSH2 0x65F JUMPI PUSH2 0x65F PUSH2 0x847 JUMP JUMPDEST EQ PUSH2 0x814 JUMPI DUP2 PUSH1 0x2 DUP2 GT ISZERO PUSH2 0x676 JUMPI PUSH2 0x676 PUSH2 0x847 JUMP JUMPDEST DUP6 DUP3 DUP2 SLOAD DUP2 LT PUSH2 0x688 JUMPI PUSH2 0x688 PUSH2 0x953 JUMP JUMPDEST PUSH1 0x0 SWAP2 DUP3 MSTORE PUSH1 0x20 SWAP1 SWAP2 KECCAK256 ADD SLOAD PUSH1 0x1 PUSH1 0xA0 SHL SWAP1 DIV PUSH1 0xFF AND PUSH1 0x2 DUP2 GT ISZERO PUSH2 0x6AF JUMPI PUSH2 0x6AF PUSH2 0x847 JUMP JUMPDEST SUB PUSH2 0x766 JUMPI PUSH32 0x0 PUSH1 0x1 PUSH1 0x1 PUSH1 0xA0 SHL SUB AND PUSH4 0xDED86D68 DUP7 DUP4 DUP2 SLOAD DUP2 LT PUSH2 0x6F5 JUMPI PUSH2 0x6F5 PUSH2 0x953 JUMP JUMPDEST PUSH1 0x0 SWAP2 DUP3 MSTORE PUSH1 0x20 SWAP1 SWAP2 KECCAK256 ADD SLOAD PUSH1 0x40 MLOAD PUSH1 0xE0 DUP4 SWAP1 SHL PUSH1 0x1 PUSH1 0x1 PUSH1 0xE0 SHL SUB NOT AND DUP2 MSTORE PUSH1 0x1 PUSH1 0x1 PUSH1 0xA0 SHL SUB SWAP1 SWAP2 AND PUSH1 0x4 DUP3 ADD MSTORE PUSH1 0x5 PUSH1 0x24 DUP3 ADD MSTORE PUSH1 0x44 ADD PUSH1 0x0 PUSH1 0x40 MLOAD DUP1 DUP4 SUB DUP2 PUSH1 0x0 DUP8 DUP1 EXTCODESIZE ISZERO DUP1 ISZERO PUSH2 0x749 JUMPI PUSH1 0x0 DUP1 REVERT JUMPDEST POP GAS CALL ISZERO DUP1 ISZERO PUSH2 0x75D JUMPI RETURNDATASIZE PUSH1 0x0 DUP1 RETURNDATACOPY RETURNDATASIZE PUSH1 0x0 REVERT JUMPDEST POP POP POP POP PUSH2 0x814 JUMP JUMPDEST PUSH32 0x0 PUSH1 0x1 PUSH1 0x1 PUSH1 0xA0 SHL SUB AND PUSH4 0xED9FA61B DUP7 DUP4 DUP2 SLOAD DUP2 LT PUSH2 0x7A7 JUMPI PUSH2 0x7A7 PUSH2 0x953 JUMP JUMPDEST PUSH1 0x0 SWAP2 DUP3 MSTORE PUSH1 0x20 SWAP1 SWAP2 KECCAK256 ADD SLOAD PUSH1 0x40 MLOAD PUSH1 0xE0 DUP4 SWAP1 SHL PUSH1 0x1 PUSH1 0x1 PUSH1 0xE0 SHL SUB NOT AND DUP2 MSTORE PUSH1 0x1 PUSH1 0x1 PUSH1 0xA0 SHL SUB SWAP1 SWAP2 AND PUSH1 0x4 DUP3 ADD MSTORE PUSH1 0x3 PUSH1 0x24 DUP3 ADD MSTORE PUSH1 0x44 ADD PUSH1 0x0 PUSH1 0x40 MLOAD DUP1 DUP4 SUB DUP2 PUSH1 0x0 DUP8 DUP1 EXTCODESIZE ISZERO DUP1 ISZERO PUSH2 0x7FB JUMPI PUSH1 0x0 DUP1 REVERT JUMPDEST POP GAS CALL ISZERO DUP1 ISZERO PUSH2 0x80F JUMPI RETURNDATASIZE PUSH1 0x0 DUP1 RETURNDATACOPY RETURNDATASIZE PUSH1 0x0 REVERT JUMPDEST POP POP POP POP JUMPDEST DUP1 PUSH2 0x81E DUP2 PUSH2 0x969 JUMP JUMPDEST SWAP2 POP POP PUSH2 0x61B JUMP JUMPDEST POP POP POP POP POP POP JUMP JUMPDEST PUSH1 0x0 PUSH1 0x20 DUP3 DUP5 SUB SLT ISZERO PUSH2 0x840 JUMPI PUSH1 0x0 DUP1 REVERT JUMPDEST POP CALLDATALOAD SWAP2 SWAP1 POP JUMP JUMPDEST PUSH4 0x4E487B71 PUSH1 0xE0 SHL PUSH1 0x0 MSTORE PUSH1 0x21 PUSH1 0x4 MSTORE PUSH1 0x24 PUSH1 0x0 REVERT JUMPDEST PUSH1 0x3 DUP2 LT PUSH2 0x87B JUMPI PUSH4 0x4E487B71 PUSH1 0xE0 SHL PUSH1 0x0 MSTORE PUSH1 0x21 PUSH1 0x4 MSTORE PUSH1 0x24 PUSH1 0x0 REVERT JUMPDEST SWAP1 MSTORE JUMP JUMPDEST PUSH1 0x20 DUP1 DUP3 MSTORE DUP3 MLOAD DUP3 DUP3 ADD DUP2 SWAP1 MSTORE PUSH1 0x0 SWAP2 SWAP1 PUSH1 0x40 SWAP1 DUP2 DUP6 ADD SWAP1 DUP7 DUP5 ADD DUP6 JUMPDEST DUP3 DUP2 LT ISZERO PUSH2 0x8D3 JUMPI DUP2 MLOAD DUP1 MLOAD PUSH1 0x1 PUSH1 0x1 PUSH1 0xA0 SHL SUB AND DUP6 MSTORE DUP7 ADD MLOAD PUSH2 0x8C2 DUP8 DUP7 ADD DUP3 PUSH2 0x85D JUMP JUMPDEST POP SWAP3 DUP5 ADD SWAP3 SWAP1 DUP6 ADD SWAP1 PUSH1 0x1 ADD PUSH2 0x89C JUMP JUMPDEST POP SWAP2 SWAP8 SWAP7 POP POP POP POP POP POP POP JUMP JUMPDEST PUSH1 0x0 DUP1 PUSH1 0x40 DUP4 DUP6 SUB SLT ISZERO PUSH2 0x8F3 JUMPI PUSH1 0x0 DUP1 REVERT JUMPDEST DUP3 CALLDATALOAD SWAP2 POP PUSH1 0x20 DUP4 ADD CALLDATALOAD PUSH1 0xFF DUP2 AND DUP2 EQ PUSH2 0x90B JUMPI PUSH1 0x0 DUP1 REVERT JUMPDEST DUP1 SWAP2 POP POP SWAP3 POP SWAP3 SWAP1 POP JUMP JUMPDEST PUSH1 0x20 DUP2 ADD PUSH2 0x924 DUP3 DUP5 PUSH2 0x85D JUMP JUMPDEST SWAP3 SWAP2 POP POP JUMP JUMPDEST PUSH1 0x0 PUSH1 0x20 DUP3 DUP5 SUB SLT ISZERO PUSH2 0x93C JUMPI PUSH1 0x0 DUP1 REVERT JUMPDEST DUP2 MLOAD DUP1 ISZERO ISZERO DUP2 EQ PUSH2 0x94C JUMPI PUSH1 0x0 DUP1 REVERT JUMPDEST SWAP4 SWAP3 POP POP POP JUMP JUMPDEST PUSH4 0x4E487B71 PUSH1 0xE0 SHL PUSH1 0x0 MSTORE PUSH1 0x32 PUSH1 0x4 MSTORE PUSH1 0x24 PUSH1 0x0 REVERT JUMPDEST PUSH1 0x0 PUSH1 0x1 DUP3 ADD PUSH2 0x989 JUMPI PUSH4 0x4E487B71 PUSH1 0xE0 SHL PUSH1 0x0 MSTORE PUSH1 0x11 PUSH1 0x4 MSTORE PUSH1 0x24 PUSH1 0x0 REVERT JUMPDEST POP PUSH1 0x1 ADD SWAP1 JUMP INVALID LOG2 PUSH5 0x6970667358 0x22 SLT KECCAK256 JUMP SUB PUSH19 0x9498E86E59ABF736C08258B4B47EC7EAC167DF 0xBD 0x27 0xCF CODECOPY 0xB7 TIMESTAMP 0xE2 0xCB 0x24 0xF8 PUSH5 0x736F6C6343 STOP ADDMOD EQ STOP CALLER "
        },
        "methodIdentifiers": {
          "consensusReached(bytes32)": "731b0b60",
          "consensusResult(bytes32)": "594ea7ac",
          "getValidations(bytes32)": "356daa7d",
          "quorumThreshold()": "7b7a91dd",
          "reputationSystem()": "6587eda1",
          "submitValidation(bytes32,uint8)": "3d8ecc98"
        }
      }
    }
  }
}