{
  "contracts/PublicationRegistry.sol": {
    "PublicationRegistry": {
      "abi": [
        {
          "inputs": [
            {
              "internalType": "bytes32",
              "name": "contentHash",
              "type": "bytes32"
            }
          ],
          "name": "PublicationAlreadyExists",
          "type": "error"
        },
        {
          "inputs": [
            {
              "internalType": "bytes32",
              "name": "contentHash",
              "type": "bytes32"
            }
          ],
          "name": "PublicationNotFound",
          "type": "error"
        },
        {
          "anonymous": false,
          "inputs": [
            {
              "indexed": true,
              "internalType": "bytes32",
              "name": "contentHash",
              "type": "bytes32"
            },
            {
              "indexed": true,
              "internalType": "address",
              "name": "author",
              "type": "address"
            },
            {
              "indexed": false,
              "internalType": "uint256",
              "name": "timestamp",
              "type": "uint256"
            }
          ],
          "name": "PublicationRegistered",
          "type": "event"
        },
        {
          "inputs": [
            {
              "internalType": "bytes32",
              "name": "contentHash",
              "type": "bytes32"
            }
          ],
          "name": "getPublication",
          "outputs": [
            {
              "components": [
                {
                  "internalType": "address",
                  "name": "author",
                  "type": "address"
                },
                {
                  "internalType": "uint96",
                  "name": "timestamp",
                  "type": "uint96"
                },
                {
                  "internalType": "bool",
                  "name": "exists",
                  "type": "bool"
                }
              ],
              "internalType": "struct PublicationRegistry.Publication",
              "name": "",
              "type": "tuple"
            }
          ],
          "stateMutability": "view",
          "type": "function"
        },
        {
          "inputs": [
            {
              "internalType": "bytes32",
              "name": "",
              "type": "bytes32"
            }
          ],
          "name": "publications",
          "outputs": [
            {
              "internalType": "address",
              "name": "author",
              "type": "address"
            },
            {
              "internalType": "uint96",
              "name": "timestamp",
              "type": "uint96"
            },
            {
              "internalType": "bool",
              "name": "exists",
              "type": "bool"
            }
          ],
          "stateMutability": "view",
          "type": "function"
        },
        {
          "inputs": [
            {
              "internalType": "bytes32",
              "name": "contentHash",
              "type": "bytes32"
            }
          ],
          "name": "registerPublication",
          "outputs": [],
          "stateMutability": "nonpayable",
          "type": "function"
        }
      ],
      "evm": {
        "bytecode": {
          "linkReferences": {},
          "object": "608060405234801561001057600080fd5b506102ea806100206000396000f3fe608060405234801561001057600080fd5b50600436106100415760003560e01c8063131b948d146100465780633a697ff71461009457806345df7dae146100a9575b600080fd5b61005961005436600461029b565b61011e565b6040805182516001600160a01b031681526020808401516001600160601b031690820152918101511515908201526060015b60405180910390f35b6100a76100a236600461029b565b6101c2565b005b6100ef6100b736600461029b565b600060208190529081526040902080546001909101546001600160a01b03821691600160a01b90046001600160601b03169060ff1683565b604080516001600160a01b0390941684526001600160601b03909216602084015215159082015260600161008b565b6040805160608101825260008082526020808301829052828401829052848252819052919091206001015460ff1661017157604051630f750ab360e01b8152600481018390526024015b60405180910390fd5b5060009081526020818152604091829020825160608101845281546001600160a01b0381168252600160a01b90046001600160601b0316928101929092526001015460ff1615159181019190915290565b60008181526020819052604090206001015460ff16156101f85760405163a60c1d6360e01b815260048101829052602401610168565b60408051606081018252338082526001600160601b03428181166020808601828152600187890181815260008b81528085528a902098519251909616600160a01b026001600160a01b03909216919091178755935195909301805495151560ff19909616959095179094559351928352909184917f53507eda96388a0136a0470da8f2cd9517159f4cf4f8b371b661b3c42ba9e4f2910160405180910390a35050565b6000602082840312156102ad57600080fd5b503591905056fea2646970667358221220cd7c5833f407f9a062d8651ae7fa7af71fae575948119c56b9a472c8b87674b764736f6c63430008140033",
          "opcodes": "PUSH1 0x80 PUSH1 0x40 MSTORE CALLVALUE DUP1 ISZERO PUSH2 0x10 JUMPI PUSH1 0x0 DUP1 REVERT JUMPDEST POP PUSH2 0x2EA DUP1 PUSH2 0x20 PUSH1 0x0 CODECOPY PUSH1 0x0 RETURN INVALID PUSH1 0x80 PUSH1 0x40 MSTORE CALLVALUE DUP1 ISZERO PUSH2 0x10 JUMPI PUSH1 0x0 DUP1 REVERT JUMPDEST POP PUSH1 0x4 CALLDATASIZE LT PUSH2 0x41 JUMPI PUSH1 0x0 CALLDATALOAD PUSH1 0xE0 SHR DUP1 PUSH4 0x131B948D EQ PUSH2 0x46 JUMPI DUP1 PUSH4 0x3A697FF7 EQ PUSH2 0x94 JUMPI DUP1 PUSH4 0x45DF7DAE EQ PUSH2 0xA9 JUMPI JUMPDEST PUSH1 0x0 DUP1 REVERT JUMPDEST PUSH2 0x59 PUSH2 0x54 CALLDATASIZE PUSH1 0x4 PUSH2 0x29B JUMP JUMPDEST PUSH2 0x11E JUMP JUMPDEST PUSH1 0x40 DUP1 MLOAD DUP3 MLOAD PUSH1 0x1 PUSH1 0x1 PUSH1 0xA0 SHL SUB AND DUP2 MSTORE PUSH1 0x20 DUP1 DUP5 ADD MLOAD PUSH1 0x1 PUSH1 0x1 PUSH1 0x60 SHL SUB AND SWAP1 DUP3 ADD MSTORE SWAP2 DUP2 ADD MLOAD ISZERO ISZERO SWAP1 DUP3 ADD MSTORE PUSH1 0x60 ADD JUMPDEST PUSH1 0x40 MLOAD DUP1 SWAP2 SUB SWAP1 RETURN JUMPDEST PUSH2 0xA7 PUSH2 0xA2 CALLDATASIZE PUSH1 0x4 PUSH2 0x29B JUMP JUMPDEST PUSH2 0x1C2 JUMP JUMPDEST STOP JUMPDEST PUSH2 0xEF PUSH2 0xB7 CALLDATASIZE PUSH1 0x4 PUSH2 0x29B JUMP JUMPDEST PUSH1 0x0 PUSH1 0x20 DUP2 SWAP1 MSTORE SWAP1 DUP2 MSTORE PUSH1 0x40 SWAP1 KECCAK256 DUP1 SLOAD PUSH1 0x1 SWAP1 SWAP2 ADD SLOAD PUSH1 0x1 PUSH1 0x1 PUSH1 0xA0 SHL SUB DUP3 AND SWAP2 PUSH1 0x1 PUSH1 0xA0 SHL SWAP1 DIV PUSH1 0x1 PUSH1 0x1 PUSH1 0x60 SHL SUB AND SWAP1 PUSH1 0xFF AND DUP4 JUMP JUMPDEST PUSH1 0x40 DUP1 MLOAD PUSH1 0x1 PUSH1 0x1 PUSH1 0xA0 SHL SUB SWAP1 SWAP5 AND DUP5 MSTORE PUSH1 0x1 PUSH1 0x1 PUSH1 0x60 SHL SUB SWAP1 SWAP3 AND PUSH1 0x20 DUP5 ADD MSTORE ISZERO ISZERO SWAP1 DUP3 ADD MSTORE PUSH1 0x60 ADD PUSH2 0x8B JUMP JUMPDEST PUSH1 0x40 DUP1 MLOAD PUSH1 0x60 DUP2 ADD DUP3 MSTORE PUSH1 0x0 DUP1 DUP3 MSTORE PUSH1 0x20 DUP1 DUP4 ADD DUP3 SWAP1 MSTORE DUP3 DUP5 ADD DUP3 SWAP1 MSTORE DUP5 DUP3 MSTORE DUP2 SWAP1 MSTORE SWAP2 SWAP1 SWAP2 KECCAK256 PUSH1 0x1 ADD SLOAD PUSH1 0xFF AND PUSH2 0x171 JUMPI PUSH1 0x40 MLOAD PUSH4 0xF750AB3 PUSH1 0xE0 SHL DUP2 MSTORE PUSH1 0x4 DUP2 ADD DUP4 SWAP1 MSTORE PUSH1 0x24 ADD JUMPDEST PUSH1 0x40 MLOAD DUP1 SWAP2 SUB SWAP1 REVERT JUMPDEST POP PUSH1 0x0 SWAP1 DUP2 MSTORE PUSH1 0x20 DUP2 DUP2 MSTORE PUSH1 0x40 SWAP2 DUP3 SWAP1 KECCAK256 DUP3 MLOAD PUSH1 0x60 DUP2 ADD DUP5 MSTORE DUP2 SLOAD PUSH1 0x1 PUSH1 0x1 PUSH1 0xA0 SHL SUB DUP2 AND DUP3 MSTORE PUSH1 0x1 PUSH1 0xA0 SHL SWAP1 DIV PUSH1 0x1 PUSH1 0x1 PUSH1 0x60 SHL SUB AND SWAP3 DUP2 ADD SWAP3 SWAP1 SWAP3 MSTORE PUSH1 0x1 ADD SLOAD PUSH1 0xFF AND ISZERO ISZERO SWAP2 DUP2 ADD SWAP2 SWAP1 SWAP2 MSTORE SWAP1 JUMP JUMPDEST PUSH1 0x0 DUP2 DUP2 MSTORE PUSH1 0x20 DUP2 SWAP1 MSTORE PUSH1 0x40 SWAP1 KECCAK256 PUSH1 0x1 ADD SLOAD PUSH1 0xFF AND ISZERO PUSH2 0x1F8 JUMPI PUSH1 0x40 MLOAD PUSH4 0xA60C1D63 PUSH1 0xE0 SHL DUP2 MSTORE PUSH1 0x4 DUP2 ADD DUP3 SWAP1 MSTORE PUSH1 0x24 ADD PUSH2 0x168 JUMP JUMPDEST PUSH1 0x40 DUP1 MLOAD PUSH1 0x60 DUP2 ADD DUP3 MSTORE CALLER DUP1 DUP3 MSTORE PUSH1 0x1 PUSH1 0x1 PUSH1 0x60 SHL SUB TIMESTAMP DUP2 DUP2 AND PUSH1 0x20 DUP1 DUP7 ADD DUP3 DUP2 MSTORE PUSH1 0x1 DUP8 DUP10 ADD DUP2 DUP2 MSTORE PUSH1 0x0 DUP12 DUP2 MSTORE DUP1 DUP6 MSTORE DUP11 SWAP1 KECCAK256 SWAP9 MLOAD SWAP3 MLOAD SWAP1 SWAP7 AND PUSH1 0x1 PUSH1 0xA0 SHL MUL PUSH1 0x1 PUSH1 0x1 PUSH1 0xA0 SHL SUB SWAP1 SWAP3 AND SWAP2 SWAP1 SWAP2 OR DUP8 SSTORE SWAP4 MLOAD SWAP6 SWAP1 SWAP4 ADD DUP1 SLOAD SWAP6 ISZERO ISZERO PUSH1 0xFF NOT SWAP1 SWAP7 AND SWAP6 SWAP1 SWAP6 OR SWAP1 SWAP5 SSTORE SWAP4 MLOAD SWAP3 DUP4 MSTORE SWAP1 SWAP2 DUP5 SWAP2 PUSH32 0x53507EDA96388A0136A0470DA8F2CD9517159F4CF4F8B371B661B3C42BA9E4F2 SWAP2 ADD PUSH1 0x40 MLOAD DUP1 SWAP2 SUB SWAP1 LOG3 POP POP JUMP JUMPDEST PUSH1 0x0 PUSH1 0x20 DUP3 DUP5 SUB SLT ISZERO PUSH2 0x2AD JUMPI PUSH1 0x0 DUP1 REVERT JUMPDEST POP CALLDATALOAD SWAP2 SWAP1 POP JUMP INVALID LOG2 PUSH5 0x6970667358 0x22 SLT KECCAK256 0xCD PUSH29 0x5833F407F9A062D8651AE7FA7AF71FAE575948119C56B9A472C8B87674 0xB7 PUSH5 0x736F6C6343 STOP ADDMOD EQ STOP CALLER "
        },
        "methodIdentifiers": {
          "getPublication(bytes32)": "131b948d",
          "publications(bytes32)": "45df7dae",
          "registerPublication(bytes32)": "3a697ff7"
        }
      }
    }
  }
}